{
  "contractName": "Voting",
  "abi": [
    {
      "inputs": [],
      "stateMutability": "nonpayable",
      "type": "constructor"
    },
    {
      "inputs": [
        {
          "internalType": "uint256",
          "name": "",
          "type": "uint256"
        }
      ],
      "name": "candidates",
      "outputs": [
        {
          "internalType": "string",
          "name": "name",
          "type": "string"
        },
        {
          "internalType": "uint256",
          "name": "voteCount",
          "type": "uint256"
        }
      ],
      "stateMutability": "view",
      "type": "function",
      "constant": true
    },
    {
      "inputs": [
        {
          "internalType": "address",
          "name": "",
          "type": "address"
        }
      ],
      "name": "voters",
      "outputs": [
        {
          "internalType": "bool",
          "name": "voted",
          "type": "bool"
        },
        {
          "internalType": "uint256",
          "name": "candidate",
          "type": "uint256"
        }
      ],
      "stateMutability": "view",
      "type": "function",
      "constant": true
    },
    {
      "inputs": [],
      "name": "votingAdmin",
      "outputs": [
        {
          "internalType": "address",
          "name": "",
          "type": "address"
        }
      ],
      "stateMutability": "view",
      "type": "function",
      "constant": true
    },
    {
      "inputs": [
        {
          "internalType": "string",
          "name": "candidateName",
          "type": "string"
        }
      ],
      "name": "addCandidate",
      "outputs": [],
      "stateMutability": "nonpayable",
      "type": "function"
    },
    {
      "inputs": [],
      "name": "getCandidateCount",
      "outputs": [
        {
          "internalType": "uint256",
          "name": "count_",
          "type": "uint256"
        }
      ],
      "stateMutability": "view",
      "type": "function",
      "constant": true
    },
    {
      "inputs": [
        {
          "internalType": "uint256",
          "name": "index",
          "type": "uint256"
        }
      ],
      "name": "getCandidateByIndex",
      "outputs": [
        {
          "components": [
            {
              "internalType": "string",
              "name": "name",
              "type": "string"
            },
            {
              "internalType": "uint256",
              "name": "voteCount",
              "type": "uint256"
            }
          ],
          "internalType": "struct Voting.Candidate",
          "name": "candidate_",
          "type": "tuple"
        }
      ],
      "stateMutability": "view",
      "type": "function",
      "constant": true
    },
    {
      "inputs": [],
      "name": "getVotingAdmin",
      "outputs": [
        {
          "internalType": "address",
          "name": "adminAddress_",
          "type": "address"
        }
      ],
      "stateMutability": "view",
      "type": "function",
      "constant": true
    },
    {
      "inputs": [
        {
          "internalType": "address",
          "name": "voterAddress",
          "type": "address"
        }
      ],
      "name": "isValidVoter",
      "outputs": [
        {
          "internalType": "bool",
          "name": "isValid_",
          "type": "bool"
        }
      ],
      "stateMutability": "view",
      "type": "function",
      "constant": true
    },
    {
      "inputs": [],
      "name": "getElectionState",
      "outputs": [
        {
          "internalType": "bool",
          "name": "state_",
          "type": "bool"
        }
      ],
      "stateMutability": "view",
      "type": "function",
      "constant": true
    },
    {
      "inputs": [],
      "name": "getElectionCount",
      "outputs": [
        {
          "internalType": "uint256",
          "name": "count_",
          "type": "uint256"
        }
      ],
      "stateMutability": "view",
      "type": "function",
      "constant": true
    },
    {
      "inputs": [],
      "name": "startElection",
      "outputs": [],
      "stateMutability": "nonpayable",
      "type": "function"
    },
    {
      "inputs": [],
      "name": "endElection",
      "outputs": [],
      "stateMutability": "nonpayable",
      "type": "function"
    },
    {
      "inputs": [
        {
          "internalType": "uint256",
          "name": "candidateIndex",
          "type": "uint256"
        }
      ],
      "name": "vote",
      "outputs": [],
      "stateMutability": "nonpayable",
      "type": "function"
    },
    {
      "inputs": [],
      "name": "getWiningCandidateIndex",
      "outputs": [
        {
          "internalType": "uint256",
          "name": "winingCandidate_",
          "type": "uint256"
        }
      ],
      "stateMutability": "view",
      "type": "function",
      "constant": true
    }
  ],
  "bytecode": "0x608060405260008060146101000a81548160ff021916908315150217905550600060015534801561002f57600080fd5b50336000806101000a81548173ffffffffffffffffffffffffffffffffffffffff021916908373ffffffffffffffffffffffffffffffffffffffff1602179055506119018061007f6000396000f3fe608060405234801561001057600080fd5b50600436106100ea5760003560e01c8063a3ec138d1161008c578063d25b11e011610066578063d25b11e014610227578063d45529f414610257578063ebf2455514610275578063f869809c14610293576100ea565b8063a3ec138d146101a8578063ab172cf5146101d9578063c2f2e89a14610209576100ea565b80633477ee2e116100c85780633477ee2e14610147578063462e91ec1461017857806359f784681461019457806362d73eb81461019e576100ea565b80630121b93f146100ef578063213785a01461010b57806330a5634714610129575b600080fd5b61010960048036038101906101049190610c42565b6102b1565b005b6101136103fa565b6040516101209190610c7e565b60405180910390f35b610131610404565b60405161013e9190610c7e565b60405180910390f35b610161600480360381019061015c9190610c42565b610411565b60405161016f929190610d29565b60405180910390f35b610192600480360381019061018d9190610e8e565b6104cd565b005b61019c610656565b005b6101a661074f565b005b6101c260048036038101906101bd9190610f35565b6108ef565b6040516101d0929190610f7d565b60405180910390f35b6101f360048036038101906101ee9190610c42565b610920565b604051610200919061103c565b60405180910390f35b6102116109f8565b60405161021e9190610c7e565b60405180910390f35b610241600480360381019061023c9190610f35565b610b21565b60405161024e919061105e565b60405180910390f35b61025f610b7b565b60405161026c9190611088565b60405180910390f35b61027d610b9f565b60405161028a9190611088565b60405180910390f35b61029b610bc8565b6040516102a8919061105e565b60405180910390f35b600060149054906101000a900460ff16610300576040517f08c379a00000000000000000000000000000000000000000000000000000000081526004016102f7906110ef565b60405180910390fd5b6000600360003373ffffffffffffffffffffffffffffffffffffffff1673ffffffffffffffffffffffffffffffffffffffff16815260200190815260200160002090508060000160009054906101000a900460ff1615610395576040517f08c379a000000000000000000000000000000000000000000000000000000000815260040161038c9061115b565b60405180910390fd5b60018160000160006101000a81548160ff021916908315150217905550818160010181905550600282815481106103cf576103ce61117b565b5b906000526020600020906002020160010160008154809291906103f1906111d9565b91905055505050565b6000600154905090565b6000600280549050905090565b6002818154811061042157600080fd5b906000526020600020906002020160009150905080600001805461044490611250565b80601f016020809104026020016040519081016040528092919081815260200182805461047090611250565b80156104bd5780601f10610492576101008083540402835291602001916104bd565b820191906000526020600020905b8154815290600101906020018083116104a057829003601f168201915b5050505050908060010154905082565b60008054906101000a900473ffffffffffffffffffffffffffffffffffffffff1673ffffffffffffffffffffffffffffffffffffffff163373ffffffffffffffffffffffffffffffffffffffff161461055b576040517f08c379a0000000000000000000000000000000000000000000000000000000008152600401610552906112cd565b60405180910390fd5b600060149054906101000a900460ff16156105ab576040517f08c379a00000000000000000000000000000000000000000000000000000000081526004016105a290611339565b60405180910390fd5b6000600154146105f0576040517f08c379a00000000000000000000000000000000000000000000000000000000081526004016105e7906113a5565b60405180910390fd5b600260405180604001604052808381526020016000815250908060018154018082558091505060019003906000526020600020906002020160009091909190915060008201518160000190816106469190611571565b5060208201518160010155505050565b60008054906101000a900473ffffffffffffffffffffffffffffffffffffffff1673ffffffffffffffffffffffffffffffffffffffff163373ffffffffffffffffffffffffffffffffffffffff16146106e4576040517f08c379a00000000000000000000000000000000000000000000000000000000081526004016106db9061168f565b60405180910390fd5b600060149054906101000a900460ff16610733576040517f08c379a000000000000000000000000000000000000000000000000000000000815260040161072a906110ef565b60405180910390fd5b60008060146101000a81548160ff021916908315150217905550565b60008054906101000a900473ffffffffffffffffffffffffffffffffffffffff1673ffffffffffffffffffffffffffffffffffffffff163373ffffffffffffffffffffffffffffffffffffffff16146107dd576040517f08c379a00000000000000000000000000000000000000000000000000000000081526004016107d4906116fb565b60405180910390fd5b600060149054906101000a900460ff161561082d576040517f08c379a000000000000000000000000000000000000000000000000000000000815260040161082490611767565b60405180910390fd5b600060015414610872576040517f08c379a0000000000000000000000000000000000000000000000000000000008152600401610869906113a5565b60405180910390fd5b6001600280549050116108ba576040517f08c379a00000000000000000000000000000000000000000000000000000000081526004016108b1906117d3565b60405180910390fd5b6001600060146101000a81548160ff021916908315150217905550600160008154809291906108e8906111d9565b9190505550565b60036020528060005260406000206000915090508060000160009054906101000a900460ff16908060010154905082565b610928610bde565b6002828154811061093c5761093b61117b565b5b906000526020600020906002020160405180604001604052908160008201805461096590611250565b80601f016020809104026020016040519081016040528092919081815260200182805461099190611250565b80156109de5780601f106109b3576101008083540402835291602001916109de565b820191906000526020600020905b8154815290600101906020018083116109c157829003601f168201915b505050505081526020016001820154815250509050919050565b60008060149054906101000a900460ff1615610a49576040517f08c379a0000000000000000000000000000000000000000000000000000000008152600401610a409061183f565b60405180910390fd5b600060015411610a8e576040517f08c379a0000000000000000000000000000000000000000000000000000000008152600401610a85906118ab565b60405180910390fd5b6000805b600280549050811015610b0b578160028281548110610ab457610ab361117b565b5b9060005260206000209060020201600101541115610af85760028181548110610ae057610adf61117b565b5b90600052602060002090600202016001015491508092505b8080610b03906111d9565b915050610a92565b5060008103610b1d5760028054905091505b5090565b6000600360008373ffffffffffffffffffffffffffffffffffffffff1673ffffffffffffffffffffffffffffffffffffffff16815260200190815260200160002060000160009054906101000a900460ff16159050919050565b60008054906101000a900473ffffffffffffffffffffffffffffffffffffffff1681565b60008060009054906101000a900473ffffffffffffffffffffffffffffffffffffffff16905090565b60008060149054906101000a900460ff16905090565b604051806040016040528060608152602001600081525090565b6000604051905090565b600080fd5b600080fd5b6000819050919050565b610c1f81610c0c565b8114610c2a57600080fd5b50565b600081359050610c3c81610c16565b92915050565b600060208284031215610c5857610c57610c02565b5b6000610c6684828501610c2d565b91505092915050565b610c7881610c0c565b82525050565b6000602082019050610c936000830184610c6f565b92915050565b600081519050919050565b600082825260208201905092915050565b60005b83811015610cd3578082015181840152602081019050610cb8565b60008484015250505050565b6000601f19601f8301169050919050565b6000610cfb82610c99565b610d058185610ca4565b9350610d15818560208601610cb5565b610d1e81610cdf565b840191505092915050565b60006040820190508181036000830152610d438185610cf0565b9050610d526020830184610c6f565b9392505050565b600080fd5b600080fd5b7f4e487b7100000000000000000000000000000000000000000000000000000000600052604160045260246000fd5b610d9b82610cdf565b810181811067ffffffffffffffff82111715610dba57610db9610d63565b5b80604052505050565b6000610dcd610bf8565b9050610dd98282610d92565b919050565b600067ffffffffffffffff821115610df957610df8610d63565b5b610e0282610cdf565b9050602081019050919050565b82818337600083830152505050565b6000610e31610e2c84610dde565b610dc3565b905082815260208101848484011115610e4d57610e4c610d5e565b5b610e58848285610e0f565b509392505050565b600082601f830112610e7557610e74610d59565b5b8135610e85848260208601610e1e565b91505092915050565b600060208284031215610ea457610ea3610c02565b5b600082013567ffffffffffffffff811115610ec257610ec1610c07565b5b610ece84828501610e60565b91505092915050565b600073ffffffffffffffffffffffffffffffffffffffff82169050919050565b6000610f0282610ed7565b9050919050565b610f1281610ef7565b8114610f1d57600080fd5b50565b600081359050610f2f81610f09565b92915050565b600060208284031215610f4b57610f4a610c02565b5b6000610f5984828501610f20565b91505092915050565b60008115159050919050565b610f7781610f62565b82525050565b6000604082019050610f926000830185610f6e565b610f9f6020830184610c6f565b9392505050565b600082825260208201905092915050565b6000610fc282610c99565b610fcc8185610fa6565b9350610fdc818560208601610cb5565b610fe581610cdf565b840191505092915050565b610ff981610c0c565b82525050565b6000604083016000830151848203600086015261101c8282610fb7565b91505060208301516110316020860182610ff0565b508091505092915050565b600060208201905081810360008301526110568184610fff565b905092915050565b60006020820190506110736000830184610f6e565b92915050565b61108281610ef7565b82525050565b600060208201905061109d6000830184611079565b92915050565b7f456c656374696f6e206e6f742073746172746564000000000000000000000000600082015250565b60006110d9601483610ca4565b91506110e4826110a3565b602082019050919050565b60006020820190508181036000830152611108816110cc565b9050919050565b7f416c726561647920566f74656400000000000000000000000000000000000000600082015250565b6000611145600d83610ca4565b91506111508261110f565b602082019050919050565b6000602082019050818103600083015261117481611138565b9050919050565b7f4e487b7100000000000000000000000000000000000000000000000000000000600052603260045260246000fd5b7f4e487b7100000000000000000000000000000000000000000000000000000000600052601160045260246000fd5b60006111e482610c0c565b91507fffffffffffffffffffffffffffffffffffffffffffffffffffffffffffffffff8203611216576112156111aa565b5b600182019050919050565b7f4e487b7100000000000000000000000000000000000000000000000000000000600052602260045260246000fd5b6000600282049050600182168061126857607f821691505b60208210810361127b5761127a611221565b5b50919050565b7f4e6f7420617574686f726973656420746f206164642063616e64696461746500600082015250565b60006112b7601f83610ca4565b91506112c282611281565b602082019050919050565b600060208201905081810360008301526112e6816112aa565b9050919050565b7f456c656374696f6e20616c726561647920737461727465640000000000000000600082015250565b6000611323601883610ca4565b915061132e826112ed565b602082019050919050565b6000602082019050818103600083015261135281611316565b9050919050565b7f456c656374696f6e20636f756e74206578636565646564000000000000000000600082015250565b600061138f601783610ca4565b915061139a82611359565b602082019050919050565b600060208201905081810360008301526113be81611382565b9050919050565b60008190508160005260206000209050919050565b60006020601f8301049050919050565b600082821b905092915050565b6000600883026114277fffffffffffffffffffffffffffffffffffffffffffffffffffffffffffffffff826113ea565b61143186836113ea565b95508019841693508086168417925050509392505050565b6000819050919050565b600061146e61146961146484610c0c565b611449565b610c0c565b9050919050565b6000819050919050565b61148883611453565b61149c61149482611475565b8484546113f7565b825550505050565b600090565b6114b16114a4565b6114bc81848461147f565b505050565b5b818110156114e0576114d56000826114a9565b6001810190506114c2565b5050565b601f821115611525576114f6816113c5565b6114ff846113da565b8101602085101561150e578190505b61152261151a856113da565b8301826114c1565b50505b505050565b600082821c905092915050565b60006115486000198460080261152a565b1980831691505092915050565b60006115618383611537565b9150826002028217905092915050565b61157a82610c99565b67ffffffffffffffff81111561159357611592610d63565b5b61159d8254611250565b6115a88282856114e4565b600060209050601f8311600181146115db57600084156115c9578287015190505b6115d38582611555565b86555061163b565b601f1984166115e9866113c5565b60005b82811015611611578489015182556001820191506020850194506020810190506115ec565b8683101561162e578489015161162a601f891682611537565b8355505b6001600288020188555050505b505050505050565b7f4e6f7420617574686f726973656420746f20656e6420656c656374696f6e0000600082015250565b6000611679601e83610ca4565b915061168482611643565b602082019050919050565b600060208201905081810360008301526116a88161166c565b9050919050565b7f4e6f7420617574686f726973656420746f20737461727420656c656374696f6e600082015250565b60006116e5602083610ca4565b91506116f0826116af565b602082019050919050565b60006020820190508181036000830152611714816116d8565b9050919050565b7f416c726561647920537461727465640000000000000000000000000000000000600082015250565b6000611751600f83610ca4565b915061175c8261171b565b602082019050919050565b6000602082019050818103600083015261178081611744565b9050919050565b7f4e6f7420656e6f7567682063616e646964617465730000000000000000000000600082015250565b60006117bd601583610ca4565b91506117c882611787565b602082019050919050565b600060208201905081810360008301526117ec816117b0565b9050919050565b7f456c656374696f6e207374696c6c2072756e6e696e6700000000000000000000600082015250565b6000611829601683610ca4565b9150611834826117f3565b602082019050919050565b600060208201905081810360008301526118588161181c565b9050919050565b7f456c656374696f6e20436f756e74206973203000000000000000000000000000600082015250565b6000611895601383610ca4565b91506118a08261185f565b602082019050919050565b600060208201905081810360008301526118c481611888565b905091905056fea2646970667358221220ff2c261424d362efb905a098351a91db157c04cf33c597b642c25a9294a924ee64736f6c63430008130033",
  "immutableReferences": {},
  "source": "// SPDX-License-Identifier: MIT\npragma solidity ^0.8.19;\n\n//smart contract for Voting System\n// Voting operations:\n// 1. Voting Admin adds candidate, starts/ends the election\n// 2. Voters to vote for candidates, can only vote once\n// 3. Functions to calculate votes and return winner\n\ncontract Voting {\n\n    //admin to election\n    address public votingAdmin;\n\n    //records state of election: True - election running, False - election is over \n    bool electionState = false;\n    \n    //Counter to check how many elections started\n    uint electionCount = 0;\n\n    //Defining Election Candidate Struct\n    struct Candidate{\n      string name;    //Candidate name\n      uint voteCount; //total vote count of a candidate\n    }\n    \n    Candidate[] public candidates; //array of candidates\n\n    //Defining Voter Struct\n    struct Voter{\n      bool voted;       //boolean to check if the vote has already voted, True - Voted, False - Yet to Vote\n      uint candidate;   //voter's choice of candidate's index\n    }\n\n    //creating mapping for Voters, Key - address, Value - voter\n    mapping(address => Voter) public voters;\n\n    //Defining Constructor to set the Voting admin address\n    constructor(){ \n      votingAdmin = msg.sender;   //setting votingAdmin to current call address\n    }\n\n    //function to add candidate for election, by voting admin\n    function addCandidate(string memory candidateName) public{\n\n      //check if current caller is voting admin\n      require(msg.sender == votingAdmin,'Not authorised to add candidate');\n      require(!electionState, 'Election already started');\n      require(electionCount==0, 'Election count exceeded');\n\n      //push new candidate to candidates array\n      candidates.push(Candidate({\n        name: candidateName,\n        voteCount: 0\n      }));\n\n    }\n    \n    //returns total number of candidates\n    function getCandidateCount() public view returns (uint count_){\n      count_ = candidates.length;\n    }\n\n    //returns candidate at index in candidates array\n    function getCandidateByIndex(uint index) public view returns (Candidate memory candidate_){\n      candidate_ = candidates[index];\n    }\n\n    //returns voting admin address\n    function getVotingAdmin() public view returns (address adminAddress_){\n      adminAddress_ = votingAdmin;\n    }\n\n    //returns true if voter is yet to vote\n    function isValidVoter(address voterAddress) public view returns (bool isValid_){\n      isValid_ = !voters[voterAddress].voted;\n    }\n\n    //return election state\n    function getElectionState() public view returns (bool state_){\n      state_ = electionState;\n    }\n\n    //return election count\n    function getElectionCount() public view returns (uint count_){\n      count_ = electionCount;\n    }\n\n    //function to start election by the voting admin\n    function startElection() public {\n      \n      //check if current caller is voting admin\n      require(msg.sender == votingAdmin, 'Not authorised to start election');\n      require(!electionState, 'Already Started');\n      require(electionCount==0, 'Election count exceeded');\n\n      //check if there are atleast 2 candidates to start election\n      require(candidates.length > 1, 'Not enough candidates');\n\n      electionState = true;     //change election state to true to start election\n     \n      electionCount++;    //update election count\n\n    }\n\n    //funtion to end the election by the voting admin\n    function endElection() public {\n\n      //check if current caller is voting admin\n      require(msg.sender == votingAdmin, 'Not authorised to end election');\n      require(electionState, 'Election not started');\n\n      electionState = false;      //change election state to false to end election\n\n    }\n\n\n    //function to cast vote\n    function vote(uint candidateIndex) public {\n      \n      require(electionState, 'Election not started');\n      \n      Voter storage sender = voters[msg.sender];\n\n      //check if voter already voted\n      require(!sender.voted, 'Already Voted');\n\n      sender.voted = true;                //update voted to true\n      sender.candidate = candidateIndex;  //voted candidate's index\n\n      //updating the vote count for candidate at voted index\n      candidates[candidateIndex].voteCount++;\n    }\n\n    //function to get wining candidate's index\n    function getWiningCandidateIndex() public view returns (uint winingCandidate_){\n\n      //check if election is ended\n      require(!electionState, 'Election still running');\n      require(electionCount>0, 'Election Count is 0');\n\n      uint winingVoteCount = 0;\n\n      //get maximum votes from candidates array\n      for (uint i = 0; i < candidates.length; i++) \n      {\n        if(candidates[i].voteCount > winingVoteCount){\n          winingVoteCount = candidates[i].voteCount;\n          winingCandidate_ = i;      //returns candidate index\n        }\n      }\n\n      //check to see if maximum votes are greater than 0\n      if(winingVoteCount == 0){\n        winingCandidate_ = candidates.length;    //setting wining candidate index to invalid index\n      }\n    }\n\n}",
  "sourcePath": "/Users/garima./Documents/Spring24/Blockchain/Project/Decentralised-Voting-System/contracts/VotingV2.2.sol",
  "compiler": {
    "name": "solc",
    "version": "0.8.19+commit.7dd6d404.Emscripten.clang"
  },
  "schemaVersion": "3.4.16",
  "updatedAt": "2024-04-23T20:54:10.915Z",
  "networkType": "ethereum",
  "devdoc": {
    "kind": "dev",
    "methods": {},
    "version": 1
  },
  "userdoc": {
    "kind": "user",
    "methods": {},
    "version": 1
  }
}